{
  "abi": [
    {
      "inputs": [],
      "stateMutability": "nonpayable",
      "type": "constructor"
    },
    {
      "inputs": [
        {
          "internalType": "bytes",
          "name": "data",
          "type": "bytes"
        }
      ],
      "name": "execute",
      "outputs": [],
      "stateMutability": "nonpayable",
      "type": "function"
    },
    {
      "inputs": [],
      "name": "implementation",
      "outputs": [
        {
          "internalType": "address",
          "name": "",
          "type": "address"
        }
      ],
      "stateMutability": "view",
      "type": "function"
    },
    {
      "inputs": [],
      "name": "owner",
      "outputs": [
        {
          "internalType": "address",
          "name": "",
          "type": "address"
        }
      ],
      "stateMutability": "view",
      "type": "function"
    },
    {
      "inputs": [
        {
          "internalType": "address",
          "name": "_implementation",
          "type": "address"
        }
      ],
      "name": "setImplementation",
      "outputs": [],
      "stateMutability": "nonpayable",
      "type": "function"
    }
  ],
  "bytecode": {
    "object": "0x608060405234801561001057600080fd5b50600080546001600160a01b0319163317905561028c806100326000396000f3fe608060405234801561001057600080fd5b506004361061004c5760003560e01c806309c5eabe146100515780635c60da1b146100665780638da5cb5b14610095578063d784d426146100a8575b600080fd5b61006461005f3660046101a4565b6100bb565b005b600154610079906001600160a01b031681565b6040516001600160a01b03909116815260200160405180910390f35b600054610079906001600160a01b031681565b6100646100b6366004610216565b610168565b6001546040516000916001600160a01b0316906100db9085908590610246565b600060405180830381855af49150503d8060008114610116576040519150601f19603f3d011682016040523d82523d6000602084013e61011b565b606091505b50509050806101635760405162461bcd60e51b815260206004820152601060248201526f115e1958dd5d1a5bdb8819985a5b195960821b604482015260640160405180910390fd5b505050565b6000543318610182576330cd747160e01b6000526004601cfd5b600180546001600160a01b0319166001600160a01b0392909216919091179055565b600080602083850312156101b757600080fd5b823567ffffffffffffffff808211156101cf57600080fd5b818501915085601f8301126101e357600080fd5b8135818111156101f257600080fd5b86602082850101111561020457600080fd5b60209290920196919550909350505050565b60006020828403121561022857600080fd5b81356001600160a01b038116811461023f57600080fd5b9392505050565b818382376000910190815291905056fea2646970667358221220dce05ec0da3b74b220753330c9c67fb93f42e416c6b521e4546fd95f37e3a96864736f6c63430008110033",
    "linkReferences": {}
  },
  "methodIdentifiers": {
    "execute(bytes)": "09c5eabe",
    "implementation()": "5c60da1b",
    "owner()": "8da5cb5b",
    "setImplementation(address)": "d784d426"
  },
  "id": 25
}