{
  "abi": [
    {
      "inputs": [],
      "stateMutability": "nonpayable",
      "type": "constructor"
    },
    {
      "inputs": [
        {
          "internalType": "uint256",
          "name": "tokenId",
          "type": "uint256"
        }
      ],
      "name": "readOwnerOf",
      "outputs": [
        {
          "internalType": "address",
          "name": "",
          "type": "address"
        }
      ],
      "stateMutability": "view",
      "type": "function"
    }
  ],
  "bytecode": {
    "object": "0x608060405234801561001057600080fd5b50600060208190527fad3228b676f7d3cd4284a5443f17f1962b36e491b30a40b2405849e597ba5fb580546001600160a01b03199081166001179091557fada5013122d395ba3c54772283fb069b10426056ef8ca54750cb9bb552a59e7d8054821660021790557fabbb5caa7dda850e60932de0934eb1f9d0f59695050f761dc64e443e5030a5698054821660031790557f101e368776582e57ab3d116ffe2517c0a585cd5b23174b01e275c2d8329c3d838054821660049081179091559091527f52d75039926638d3c558b2bdefb945d5be8dae29dedd1c313212a4d472d9fde58054909116600517905560c68061010a6000396000f3fe6080604052348015600f57600080fd5b506004361060285760003560e01c8063817d90f314602d575b600080fd5b605c60383660046078565b6001600160e01b03166000908152602081905260409020546001600160a01b031690565b6040516001600160a01b03909116815260200160405180910390f35b600060208284031215608957600080fd5b503591905056fea2646970667358221220e1772754731ba8fe65290e3cefc6e9d36ba526be0bc8154a357bfd18ae41e30264736f6c63430008110033",
    "linkReferences": {}
  },
  "methodIdentifiers": {
    "readOwnerOf(uint256)": "817d90f3"
  },
  "id": 21
}