{
  "abi": [
    {
      "inputs": [
        {
          "internalType": "uint256[]",
          "name": "array",
          "type": "uint256[]"
        }
      ],
      "name": "iterateEachElementInArrayAndReturnTheSum",
      "outputs": [
        {
          "internalType": "uint256",
          "name": "sum",
          "type": "uint256"
        }
      ],
      "stateMutability": "pure",
      "type": "function"
    }
  ],
  "bytecode": {
    "object": "0x608060405234801561001057600080fd5b5061011f806100206000396000f3fe6080604052348015600f57600080fd5b506004361060285760003560e01c80630eff2c1814602d575b600080fd5b603c60383660046079565b604e565b60405190815260200160405180910390f35b600081815b81811015607157600480356020830201013592909201916001016053565b505092915050565b60008060208385031215608b57600080fd5b823567ffffffffffffffff8082111560a257600080fd5b818501915085601f83011260b557600080fd5b81358181111560c357600080fd5b8660208260051b850101111560d757600080fd5b6020929092019691955090935050505056fea2646970667358221220f036c273f725e583ea34af9555770113a0bf6b713c13cc050265906857efd77264736f6c63430008110033",
    "linkReferences": {}
  },
  "methodIdentifiers": {
    "iterateEachElementInArrayAndReturnTheSum(uint256[])": "0eff2c18"
  },
  "id": 19
}