{
  "abi": [
    {
      "inputs": [
        {
          "internalType": "address",
          "name": "",
          "type": "address"
        }
      ],
      "name": "balanceOf",
      "outputs": [
        {
          "internalType": "uint256",
          "name": "",
          "type": "uint256"
        }
      ],
      "stateMutability": "view",
      "type": "function"
    },
    {
      "inputs": [],
      "name": "deposit",
      "outputs": [],
      "stateMutability": "payable",
      "type": "function"
    },
    {
      "inputs": [],
      "name": "withdraw",
      "outputs": [],
      "stateMutability": "nonpayable",
      "type": "function"
    }
  ],
  "bytecode": {
    "object": "0x608060405234801561001057600080fd5b50610249806100206000396000f3fe6080604052600436106100345760003560e01c80633ccfd60b1461003957806370a0823114610050578063d0e30db01461008f575b600080fd5b34801561004557600080fd5b5061004e610097565b005b34801561005c57600080fd5b5061007d61006b3660046101bc565b60006020819052908152604090205481565b60405190815260200160405180910390f35b61004e610196565b33600090815260208190526040812054908190036100f35760405162461bcd60e51b8152602060048201526014602482015273496e73756666696369656e742062616c616e636560601b60448201526064015b60405180910390fd5b604051600090339083908381818185875af1925050503d8060008114610135576040519150601f19603f3d011682016040523d82523d6000602084013e61013a565b606091505b50509050806101825760405162461bcd60e51b81526020600482015260146024820152732330b4b632b2103a379039b2b7321022ba3432b960611b60448201526064016100ea565b505033600090815260208190526040812055565b33600090815260208190526040812080543492906101b59084906101ec565b9091555050565b6000602082840312156101ce57600080fd5b81356001600160a01b03811681146101e557600080fd5b9392505050565b8082018082111561020d57634e487b7160e01b600052601160045260246000fd5b9291505056fea26469706673582212207d9a95f0f17b4041a4144f3693a3b541478b1edbef921a751f3971b80eeccd5b64736f6c63430008110033",
    "linkReferences": {}
  },
  "methodIdentifiers": {
    "balanceOf(address)": "70a08231",
    "deposit()": "d0e30db0",
    "withdraw()": "3ccfd60b"
  },
  "id": 23
}