{
  "abi": [
    {
      "inputs": [
        {
          "internalType": "address",
          "name": "_question5",
          "type": "address"
        }
      ],
      "name": "exploit",
      "outputs": [],
      "stateMutability": "payable",
      "type": "function"
    },
    {
      "stateMutability": "payable",
      "type": "receive"
    }
  ],
  "bytecode": {
    "object": "0x608060405234801561001057600080fd5b50610237806100206000396000f3fe6080604052600436106100225760003560e01c80630aeb4ddf1461002e57600080fd5b3661002957005b600080fd5b61004161003c3660046101a2565b610043565b005b670de0b6b3a764000034101561008d5760405162461bcd60e51b815260206004820152600b60248201526a616d6f756e74206c65737360a81b604482015260640160405180910390fd5b60408051600481526024810182526020810180516001600160e01b0316630d0e30db60e41b17905290516000916001600160a01b0384169134916100d0916101d2565b60006040518083038185875af1925050503d806000811461010d576040519150601f19603f3d011682016040523d82523d6000602084013e610112565b606091505b505060408051600481526024810182526020810180516001600160e01b0316633ccfd60b60e01b17905290519192506000916001600160a01b03851691610158916101d2565b6000604051808303816000865af19150503d8060008114610195576040519150601f19603f3d011682016040523d82523d6000602084013e61019a565b606091505b505050505050565b6000602082840312156101b457600080fd5b81356001600160a01b03811681146101cb57600080fd5b9392505050565b6000825160005b818110156101f357602081860181015185830152016101d9565b50600092019182525091905056fea26469706673582212206385fe6007196206685c0348d33c501a24ea4e7abe848a472e030e8c7ac0c1b564736f6c63430008110033",
    "linkReferences": {}
  },
  "methodIdentifiers": {
    "exploit(address)": "0aeb4ddf"
  },
  "id": 25
}