{
  "abi": [
    {
      "inputs": [
        {
          "internalType": "address",
          "name": "recipient",
          "type": "address"
        },
        {
          "internalType": "uint256",
          "name": "amount",
          "type": "uint256"
        }
      ],
      "name": "deal",
      "outputs": [],
      "stateMutability": "payable",
      "type": "function"
    },
    {
      "inputs": [
        {
          "internalType": "address",
          "name": "victim",
          "type": "address"
        }
      ],
      "name": "prank",
      "outputs": [],
      "stateMutability": "nonpayable",
      "type": "function"
    }
  ],
  "bytecode": {
    "object": "0x608060405234801561001057600080fd5b50610180806100206000396000f3fe6080604052600436106100295760003560e01c8063c88a5e6d1461002e578063ca669fa714610043575b600080fd5b61004161003c3660046100fe565b610061565b005b34801561004f57600080fd5b5061004161005e366004610128565b50565b8034146100a75760405162461bcd60e51b815260206004820152601060248201526f125b98dbdc9c9958dd08185b5bdd5b9d60821b604482015260640160405180910390fd5b6040516001600160a01b0383169082156108fc029083906000818181858888f193505050501580156100dd573d6000803e3d6000fd5b505050565b80356001600160a01b03811681146100f957600080fd5b919050565b6000806040838503121561011157600080fd5b61011a836100e2565b946020939093013593505050565b60006020828403121561013a57600080fd5b610143826100e2565b939250505056fea2646970667358221220c48f9d8c5264d3d835025b903ed2af98b6a5f5d9b9aef90293be60370ead2f4e64736f6c63430008110033",
    "linkReferences": {}
  },
  "methodIdentifiers": {
    "deal(address,uint256)": "c88a5e6d",
    "prank(address)": "ca669fa7"
  },
  "id": 25
}