{
  "abi": [
    {
      "inputs": [
        {
          "internalType": "address",
          "name": "_question6",
          "type": "address"
        }
      ],
      "name": "attack",
      "outputs": [],
      "stateMutability": "nonpayable",
      "type": "function"
    }
  ],
  "bytecode": {
    "object": "0x608060405234801561001057600080fd5b50610195806100206000396000f3fe608060405234801561001057600080fd5b506004361061002b5760003560e01c8063d018db3e14610030575b600080fd5b61004361003e3660046100e1565b610045565b005b60405133602482015260009060440160408051601f198184030181529181526020820180516001600160e01b0316636bc26a1360e11b179052516304e2f55f60e11b81529091506001600160a01b038316906309c5eabe906100ab908490600401610111565b600060405180830381600087803b1580156100c557600080fd5b505af11580156100d9573d6000803e3d6000fd5b505050505050565b6000602082840312156100f357600080fd5b81356001600160a01b038116811461010a57600080fd5b9392505050565b600060208083528351808285015260005b8181101561013e57858101830151858201604001528201610122565b506000604082860101526040601f19601f830116850101925050509291505056fea264697066735822122062d7d367a79c47b2032fe41690c9cb76e5d6cb1456d91c286ab5a52733e79cbd64736f6c63430008110033",
    "linkReferences": {}
  },
  "methodIdentifiers": {
    "attack(address)": "d018db3e"
  },
  "id": 27
}