{
  "abi": [
    {
      "inputs": [],
      "stateMutability": "nonpayable",
      "type": "constructor"
    },
    {
      "inputs": [],
      "name": "SELL_ORDER_TYPEHASH",
      "outputs": [
        {
          "internalType": "bytes32",
          "name": "",
          "type": "bytes32"
        }
      ],
      "stateMutability": "view",
      "type": "function"
    },
    {
      "inputs": [
        {
          "components": [
            {
              "internalType": "address",
              "name": "signer",
              "type": "address"
            },
            {
              "internalType": "address",
              "name": "collection",
              "type": "address"
            },
            {
              "internalType": "uint256",
              "name": "id",
              "type": "uint256"
            },
            {
              "internalType": "uint256",
              "name": "price",
              "type": "uint256"
            }
          ],
          "internalType": "struct Question4.SellOrder",
          "name": "sellOrder",
          "type": "tuple"
        },
        {
          "internalType": "uint8",
          "name": "v",
          "type": "uint8"
        },
        {
          "internalType": "bytes32",
          "name": "r",
          "type": "bytes32"
        },
        {
          "internalType": "bytes32",
          "name": "s",
          "type": "bytes32"
        }
      ],
      "name": "buy",
      "outputs": [],
      "stateMutability": "payable",
      "type": "function"
    },
    {
      "inputs": [],
      "name": "domainSeparator",
      "outputs": [
        {
          "internalType": "bytes32",
          "name": "",
          "type": "bytes32"
        }
      ],
      "stateMutability": "view",
      "type": "function"
    },
    {
      "inputs": [
        {
          "components": [
            {
              "internalType": "address",
              "name": "signer",
              "type": "address"
            },
            {
              "internalType": "address",
              "name": "collection",
              "type": "address"
            },
            {
              "internalType": "uint256",
              "name": "id",
              "type": "uint256"
            },
            {
              "internalType": "uint256",
              "name": "price",
              "type": "uint256"
            }
          ],
          "internalType": "struct Question4.SellOrder",
          "name": "sellOrder",
          "type": "tuple"
        }
      ],
      "name": "sellOrderDigest",
      "outputs": [
        {
          "internalType": "bytes32",
          "name": "",
          "type": "bytes32"
        }
      ],
      "stateMutability": "pure",
      "type": "function"
    }
  ],
  "bytecode": {
    "object": "0x608060405234801561001057600080fd5b506040805180820182526009815268145d595cdd1a5bdb8d60ba1b6020918201528151808301835260018152603160f81b9082015281517f8b73c3c69bb8fe3d512ecc4cf759cc79239f7b179b0ffacaa9a75d522b39400f918101919091527f3384556c1f5807e81147dd203b1be670b973180d0bd8b9a652a2421a1aca82e1918101919091527fc89efdaa54c0f20c7adf612882df0950f5a951637e0307cdcb4c672f298b8bc660608201524660808201523060a082015260c00160408051601f198184030181529190528051602090910120600055610478806100f66000396000f3fe60806040526004361061003f5760003560e01c8063abe76bd214610044578063d46f69ed14610059578063d595bee91461008b578063f698da25146100bf575b600080fd5b6100576100523660046103ab565b6100d5565b005b34801561006557600080fd5b506100796100743660046103f6565b6102fc565b60405190815260200160405180910390f35b34801561009757600080fd5b506100797f255d3e8283643de7f398efdd4a4a023b902a0b9034b910b722f20b30b8becc8481565b3480156100cb57600080fd5b5061007960005481565b600080546100e2866102fc565b60405161190160f01b60208201526022810192909252604282015260620160408051601f1981840301815282825280516020918201206000845290830180835281905260ff8716918301919091526060820185905260808201849052915060019060a0016020604051602081039080840390855afa158015610168573d6000803e3d6000fd5b5050604051601f1901516001600160a01b0316905061018a6020870187610419565b6001600160a01b0316146101d95760405162461bcd60e51b8152602060048201526011602482015270496e76616c6964207369676e617475726560781b60448201526064015b60405180910390fd5b6101e96040860160208701610419565b6001600160a01b03166323b872dd6102046020880188610419565b604080516001600160e01b031960e085901b1681526001600160a01b0390921660048301523360248301528801356044820152606401600060405180830381600087803b15801561025457600080fd5b505af1158015610268573d6000803e3d6000fd5b50505050846060013534146102af5760405162461bcd60e51b815260206004820152600d60248201526c496e76616c696420707269636560981b60448201526064016101d0565b6102bc6020860186610419565b6001600160a01b03166108fc349081150290604051600060405180830381858888f193505050501580156102f4573d6000803e3d6000fd5b505050505050565b60007f255d3e8283643de7f398efdd4a4a023b902a0b9034b910b722f20b30b8becc8461032c6020840184610419565b61033c6040850160208601610419565b6040805160208101949094526001600160a01b0392831684820152911660608381019190915290840135608083015283013560a082015260c001604051602081830303815290604052805190602001209050919050565b6000608082840312156103a557600080fd5b50919050565b60008060008060e085870312156103c157600080fd5b6103cb8686610393565b9350608085013560ff811681146103e157600080fd5b939693955050505060a08201359160c0013590565b60006080828403121561040857600080fd5b6104128383610393565b9392505050565b60006020828403121561042b57600080fd5b81356001600160a01b038116811461041257600080fdfea2646970667358221220991cc58aa54caddecc851f9e4ffd92769810950a68ec0d230a1b048a4ff6631564736f6c63430008110033",
    "linkReferences": {}
  },
  "methodIdentifiers": {
    "SELL_ORDER_TYPEHASH()": "d595bee9",
    "buy((address,address,uint256,uint256),uint8,bytes32,bytes32)": "abe76bd2",
    "domainSeparator()": "f698da25",
    "sellOrderDigest((address,address,uint256,uint256))": "d46f69ed"
  },
  "id": 23
}