{
  "abi": [
    {
      "inputs": [],
      "name": "readStateVariable",
      "outputs": [
        {
          "internalType": "uint256",
          "name": "",
          "type": "uint256"
        }
      ],
      "stateMutability": "view",
      "type": "function"
    }
  ],
  "bytecode": {
    "object": "0x60806040526037600255348015601457600080fd5b5060788060226000396000f3fe6080604052348015600f57600080fd5b506004361060285760003560e01c80638cedeee014602d575b600080fd5b60025460405190815260200160405180910390f3fea2646970667358221220a056c1de9c15cc0169ef3e42b5af101edbc672a6130426ff1c9588690bd91bf264736f6c63430008110033",
    "linkReferences": {}
  },
  "methodIdentifiers": {
    "readStateVariable()": "8cedeee0"
  },
  "id": 21
}